:10007B00E4FDFCC3ED9FEE6480F8EC6480985015B2
:10008B00E4FBFA0BBB00010AEB647B4A70F50DBD78
:05009B0000010C80DEF5
:0100A000223D
:10000300E4F508F509C280C281C282C283C284C2F8
:1000130085C286C287E5087044E509B40800503DEF
:1000230090002AF828287302004202004602004A80
:1000330002004E02005202005602005A02005EB253
:1000430080801AB2818016B2828012B283800EB28F
:1000530084800AB2858006B2868002B2877FF47EEE
:100063000112007B0509E5097002050864084508CB
:0800730070A3F508F509809D5A
:030000000200A15A
:0C00A100787FE4F6D8FD758109020003A9
:00000001FF
